:1000000012C02CC02BC02AC0EBC228C01EC326C001
:1000100025C024C023C022C021C020C01FC01EC0D4
:100020001DC01CC01BC011241FBECFE5D4E0DEBF25
:10003000CDBF10E0A0E6B0E0EAE9FEE002C0059026
:100040000D92A03AB107D9F710E0A0EAB0E001C0E4
:100050001D92A93AB107E1F7A5D01DC7D1CF1F93D3
:10006000DF93CF930F92CDB7DEB7182F8BE060E010
:1000700072D3812F64E603D78823C9F480E2998381
:1000800035D49981892F6AE0FAD6882369F480E211
:100090002DD4812F6AE0F3D6892F805D27D40F906D
:1000A000CF91DF911F910895805D20D4F2CF805DC4
:1000B00099831CD49981892F6AE0E1D6805D16D49A
:1000C000E8CF1F93DF93CF930F92CDB7DEB78BE0CE
:1000D00061E041D31091A000812F64E6D0D688233F
:1000E000C9F480E2998302D49981892F6AE0C7D646
:1000F000882369F480E2FAD3812F6AE0C0D6892F81
:10010000805DF4D30F90CF91DF911F910895805DB2
:10011000EDD3F2CF805D9983E9D39981892F6AE08D
:10012000AED6805DE3D3E8CF1F93DF93CF930F92DA
:10013000CDB7DEB7182F64E6A2D68823C9F480E2D3
:100140009983D4D39981892F6AE099D6882369F459
:1001500080E2CCD3812F6AE092D6892F805DC6D30E
:100160000F90CF91DF911F910895805DBFD3F2CFA3
:10017000805D9983BBD39981892F6AE080D6805DA9
:10018000B5D3E8CF90E02091A3003091A40082176E
:10019000930739F09093A4008093A30081E08093AB
:1001A000A60008956F927F929F92AF92BF92CF92D6
:1001B000DF92EF92FF920F931F93DF93CF930F92F3
:1001C000CDB7DEB78C9A9498BB9A85B5826085BD11
:1001D00089B7806489BF1092A2001092A10010928A
:1001E000A0001092A50081E08093A6008CE001D5CC
:1001F0008BE197EB9BBD8ABD88E08FBD89B780619D
:1002000089BF84E08EBD78942091A3003091A40032
:10021000C9016091A600F4E6CF2EEAE0DE2E72E07E
:10022000A72EB12C58EEE52E53E0F52E04E110E098
:1002300041E0642E712CA9018130910509F18130D2
:100240009105B0F4662309F0F1C0B19B70C0413054
:10025000510509F491C17092A4006092A30081E05D
:100260008093A60061E081E090E021E030E0E3CF00
:100270008230910509F45FC0AC0181309105F9F637
:10028000662309F00BC18091A500882309F4C6C03C
:100290008091A1009091A20005969093A200809376
:1002A000A1008091A1009091A20023E0883E9207D6
:1002B00020F0F092A200E092A1001092A500F89424
:1002C0008BE061E048D29090A000892D6C2DD7D5AD
:1002D000882309F033C180E2998308D39981892F5B
:1002E0006D2DCDD5882309F04FC180E2FFD2892D35
:1002F0006D2DC5D5892F805DF9D27894B19B0DC144
:100300008091A3009091A400B29988C08230910599
:1003100009F457C1B092A400A092A30081E0809399
:10032000A60061E082E090E022E030E084CFC901E5
:100330006091A60080CF662309F465C01092A200E8
:100340001092A1002091A00080919D0090919E00AC
:1003500030E02817390738F48091A00090E090939E
:100360009E0080939D0058D280E060E0F4D18FE839
:1003700090E035D38BE060E0EED19090A000892D25
:100380006C2D7DD5882309F0EDC080E29983AED233
:100390009981892F6D2D73D5882309F0FBC080E2E8
:1003A000A5D2892D6D2D6BD5892F805D9FD280E0E0
:1003B00061E0D1D18FE690E012D38BE061E0CBD148
:1003C00080919D0090919E00982E6C2D58D5882389
:1003D00009F0BEC080E2998389D29981892F6D2D61
:1003E0004ED5882309F0D3C080E280D2892D6D2DAF
:1003F00046D5892F805D7AD21092A6002091A30065
:100400003091A400A901B19992CF4115510509F08D
:1004100077C06091A60080E090E00DCF2091A3000E
:100420003091A400C9016091A60005CF1092A200EE
:100430001092A100F1D180E060E08DD180E690E0E3
:10044000CED280E061E087D18FE690E0C8D28BE029
:1004500061E081D180919D0090919E00982E6C2D3D
:100460000ED5882309F099C080E299833FD2998103
:10047000892F6D2D04D5882309F0AFC080E236D2D4
:10048000892D6D2DFCD4892F805D30D21092A6006D
:100490002091A3003091A400A901D7CEBDD18FE651
:1004A00090E09DD28BE060E056D180919D009091CC
:1004B0009E00982E6C2DE3D4882309F078C080E24A
:1004C000998314D29981892F6D2DD9D4882309F06D
:1004D00081C080E20BD2892D6D2DD1D4892F805D12
:1004E00005D280E061E037D18FE790E078D21093B9
:1004F000A2000093A1001092A0001092A600C3CE0B
:100500001092A4001092A30081E08093A60061E005
:1005100080E090E020E030E08ECE2091A30030918A
:10052000A4002115310569F11092A4001092A300D6
:1005300081E08093A60080E090E0E6CE805D998324
:10054000D5D19981892F6D2D9AD4805DCFD1CFCE11
:10055000805D9983CBD19981892F6D2D90D4805D59
:10056000C5D144CF805D9983C1D19981892F6D2DEB
:1005700086D4805DBBD115CF6091A60081E090E06C
:100580005ACE80E090E0C0CE805DB0D1B0CE805D2C
:10059000ADD12CCF805DAAD104CF805D9983A6D147
:1005A0009981892F6D2D6BD4805DA0D169CF805D3D
:1005B00099839CD19981892F6D2D61D4805D96D1CD
:1005C0008ACF6091A60082E090E02091A300309154
:1005D000A40031CE805D8AD17ECF805D87D150CF9F
:1005E0001F920F920FB60F9211242F933F938F9368
:1005F0009F938091A7009091A80001969093A800E6
:100600008093A7002091A7003091A8008091A100BD
:100610009091A20082179307B0F4C3988091A7002D
:100620009091A80024E08130920720F01092A80059
:100630001092A7009F918F913F912F910F900FBE25
:100640000F901F901895C39AE9CF1F920F920FB683
:100650000F9211248F938091A0008F5F8093A00050
:1006600081E08093A5008F910F900FBE0F901F9097
:100670001895EFE6F7E13197F1F700C00000F0E1DF
:10068000FA95F1F7AC98AD9A94B3907F94BBC09A69
:1006900024E02A95F1F793B3C09894E09A95F1F786
:1006A000C09AE4E0EA95F1F793B3C098AC98AD989E
:1006B00094B39F6094BB95B3907F282F22952F70A1
:1006C000292B25BBC09AF4E0FA95F1F7C0988F70FA
:1006D000892B85BBC09A24E02A95F1F7C0989F60CA
:1006E00095BB0895EFE6F7E13197F1F700C0000000
:1006F000F0E1FA95F1F7AC98AD9A94B3907F94BB82
:10070000C09A24E02A95F1F793B3C09894E09A95A3
:10071000F1F7C09AE4E0EA95F1F793B3C098AC9A88
:10072000AD9894B39F6094BB95B3907F282F22958A
:100730002F70292B25BBC09AF4E0FA95F1F7C098E9
:100740008F70892B85BBC09A24E02A95F1F7C09859
:100750009F6095BB08956623D1F18054EFE6F7E1E1
:100760003197F1F700C00000F0E1FA95F1F7AC988D
:10077000AD9A94B3907F94BBC09A24E02A95F1F788
:1007800093B3C09894E09A95F1F7C09AE4E0EA95A3
:10079000F1F793B3C098AC98AD9894B39F6094BBB5
:1007A00095B3907F282F22952F70292B25BBC09AB7
:1007B000F4E0FA95F1F7C0988F70892B85BBC09A49
:1007C00024E02A95F1F7C0989F6095BB0895805862
:1007D000C5CF8FE697E10197F1F700C0000090E1E7
:1007E0009A95F1F7AC98AD9A84B3807F84BBC09A98
:1007F00084E08A95F1F793B3C09884E08A95F1F785
:10080000C09A84E08A95F1F783B39295907F8F70B8
:10081000C098892B90E008958FE697E10197F1F752
:1008200000C0000090E19A95F1F7AC98AD9A84B3BE
:10083000807F84BBC09A84E08A95F1F783B3C09827
:1008400094E09A95F1F7C09A84E08A95F1F783B322
:10085000C098AC98AD9884B38F6084BB85B3807F1B
:1008600085BBC09A94E09A95F1F7C098982F916053
:1008700095BBC09A94E09A95F1F7C0988F6085BBBC
:1008800008958FE697E10197F1F700C0000090E12D
:100890009A95F1F7AC98AD9A84B3807F84BBC09AE7
:1008A00084E08A95F1F783B3C09894E09A95F1F7C4
:1008B000C09A84E08A95F1F783B3C098AC98AD985C
:1008C00084B38F6084BB85B3807F85BBC09A94E07E
:1008D0009A95F1F7C098982F926095BBC09A94E0D2
:1008E0009A95F1F7C0988F6085BB0895EFE6F7E120
:1008F0003197F1F700C00000F0E1FA95F1F7AC98FC
:10090000AD9A94B3907F94BBC09A24E02A95F1F7F6
:1009100023B3C09894E09A95F1F7C09AE4E0EA9581
:10092000F1F793B3C0988A30E1F0AC9AAD9894B3E4
:100930009F6094BB95B3907F282F22952F70292B11
:1009400025BBC09AE4E0EA95F1F7C0988F70892B37
:1009500085BBC09AF4E0FA95F1F7C0989F6095BB0B
:100960000895822F8295807F9F70892B8034A8F113
:1009700098E0EFE6F7E13197F1F700C00000F0E111
:10098000FA95F1F7AC98AD9A84B3807F84BBC09A96
:1009900024E02A95F1F783B3C09884E08A95F1F7B3
:1009A000C09AE4E0EA95F1F783B3C098AC98AD98AB
:1009B00084B38F6084BB85B3807F982B95BBC09A2E
:1009C000F4E0FA95F1F7C09885BBC09A24E02A9527
:1009D000F1F7C0988F6085BB08959CE0CACFFC01F9
:1009E0008191882309F460C0AFE6B7E11197F1F770
:1009F00000C00000B0E1BA95F1F7AC98AD9A94B39D
:100A0000907F94BBC09A24E02A95F1F723B3C09855
:100A100094E09A95F1F7C09AA4E0AA95F1F793B300
:100A2000C0988A3009F041C0822F8295807F9F70E4
:100A3000892B803408F455C098E0AFE6B7E11197F0
:100A4000F1F700C00000B0E1BA95F1F7AC98AD9AAB
:100A500084B3807F84BBC09A24E02A95F1F783B3E6
:100A6000C09884E08A95F1F7C09AA4E0AA95F1F7BE
:100A700083B3C098AC98AD9884B38F6084BB85B3C2
:100A8000807F982B95BBC09AB4E0BA95F1F7C098D7
:100A900085BBC09A24E02A95F1F7C0988F6085BB8A
:100AA0008191882309F0A0CF0895AC9AAD9894B3B2
:100AB0009F6094BB95B3907F282F22952F70292B90
:100AC00025BBC09AA4E0AA95F1F7C0988F70892B36
:100AD00085BBC09AB4E0BA95F1F7C0989F6095BB0A
:100AE0007FCF9CE0AACFFC010196E491EE2309F4AC
:100AF00061C0AFE6B7E11197F1F700C00000B0E1C7
:100B0000BA95F1F7AC98AD9A24B3207F24BBC09A74
:100B1000F4E0FA95F1F723B3C09834E03A95F1F791
:100B2000C09AA4E0AA95F1F733B3C098EA3009F06F
:100B300042C02295207F3F70232B203408F457C0F9
:100B400038E0EFE6F7E13197F1F700C00000F0E19F
:100B5000FA95F1F7AC98AD9A24B3207F24BBC09AE4
:100B600024E02A95F1F723B3C098A4E0AA95F1F701
:100B7000C09AB4E0BA95F1F723B3C098AC98AD9899
:100B800024B32F6024BB25B3207F322B35BBC09A02
:100B9000E4E0EA95F1F7C09825BBC09AF4E0FA9535
:100BA000F1F7C0982F6025BBFC010196E491EE237C
:100BB00009F09FCF0895AC9AAD9824B32F6024BB61
:100BC00025B3207F3E2F32953F70322B35BBC09A24
:100BD00034E03A95F1F7C098EF70E22BE5BBC09A8C
:100BE000A4E0AA95F1F7C0982F6025BB7CCF3CE02C
:100BF000A8CF94B39F6094BBA49AA59AB89AEFE744
:100C0000FBEB3197F1F700C00000A99AA89AC09AAF
:100C1000F4E0FA95F1F7C098E7E9FAE33197F1F7D4
:100C200000C00000C09AF4E0FA95F1F7C098EFEB2D
:100C3000F0E03197F1F700C00000C09AF4E0FA95B7
:100C4000F1F7C098EFEBF0E03197F1F700C000004A
:100C5000A898C09AF4E0FA95F1F7C098EFEBF0E0AD
:100C60003197F1F700C00000EFE6F7E13197F1F7B7
:100C700000C00000F0E1FA95F1F7AC98AD9A94B39A
:100C8000907F94BBC09A24E02A95F1F793B3C09863
:100C900094E09A95F1F7C09AE4E0EA95F1F793B3FE
:100CA000C098AC98AD9894B39F6094BB95B3907F77
:100CB000292F226025BBC09AF4E0FA95F1F7C0987D
:100CC000292F286025BBC09A24E02A95F1F7C09807
:100CD0009F6095BBEFE6F7E13197F1F700C00000A8
:100CE000F0E1FA95F1F7AC98AD9A94B3907F94BB8C
:100CF000C09A24E02A95F1F793B3C09894E09A95AE
:100D0000F1F7C09AE4E0EA95F1F793B3C098AC9894
:100D1000AD9894B39F6094BB95B3907F95BBC09AF8
:100D2000F4E0FA95F1F7C098292F286025BBC09A06
:100D300024E02A95F1F7C0989F6095BBEFE6F7E1B4
:100D40003197F1F700C00000F0E1FA95F1F7AC98A7
:100D5000AD9A94B3907F94BBC09A24E02A95F1F7A2
:100D600093B3C09894E09A95F1F7C09AE4E0EA95BD
:100D7000F1F793B3C098AC98AD9894B39F6094BBCF
:100D800095B3907F95BBC09AF4E0FA95F1F7C098BF
:100D9000292F216025BBC09A24E02A95F1F7C0983D
:100DA0009F6095BBEFE6F7E13197F1F700C00000D7
:100DB000F0E1FA95F1F7AC98AD9A94B3907F94BBBB
:100DC000C09A24E02A95F1F793B3C09894E09A95DD
:100DD000F1F7C09AE4E0EA95F1F793B3C098AC98C4
:100DE000AD9894B39F6094BB95B3907F95BBC09A28
:100DF000F4E0FA95F1F7C098292F266025BBC09A38
:100E000024E02A95F1F7C0989F6095BBEFE6F7E1E3
:100E10003197F1F700C00000F0E1FA95F1F7AC98D6
:100E2000AD9A94B3907F94BBC09A24E02A95F1F7D1
:100E300093B3C09894E09A95F1F7C09AE4E0EA95EC
:100E4000F1F793B3C098AC98AD9894B39F6094BBFE
:100E500095B3907F282F22952F70292B25BBC09A00
:100E6000F4E0FA95F1F7C0988F70892B85BBC09A92
:100E700024E02A95F1F7C0989F6095BB0895991BCF
:100E800079E004C0991F961708F0961B881F7A9581
:0A0E9000C9F780950895F894FFCF8C
:100E9A00526561647920746F20706C617921004217
:100EAA006573742074696D653A20202020730043AD
:100EBA00757272656E743A202020202020730047D4
:100ECA0072617421202020202020207300FE00005F
:00000001FF
